:040000004DEF00F0D0
:06000800318277EF0CF0DD
:100018003180D8CF01F0E8CF02F0E0CF03F0F2A4AE
:1000280018EF00F01AEF00F02DEF00F0010E1D6E32
:10003800D80ED76EEF0ED66EF2941C2A090E1C64E9
:1000480028EF00F02AEF00F02DEF00F0000E1C6EF4
:10005800C2829EAC32EF00F034EF00F045EF00F0C2
:10006800C4CF20F0216A2050216E206AC35020247A
:10007800206E000E2120216E000E1F6E010E1E6ED6
:100088009E9C03C0E0FF02C0E8FF01C0D8FF31908A
:0600980010006CEF0CF0FB
:10100000000053EF09F00504D8A409EF08F00BEF36
:1010100008F02DEF08F00650D8A411EF08F013EFF8
:1010200008F02DEF08F00450D96EDA6A010EDF6E79
:101030000450D96EDA6A010ED926DE28D8B423EF1F
:1010400008F025EF08F073EF09F00450D96EDA6A62
:10105000010ED926DF2A73EF09F00550D8A433EF2B
:1010600008F035EF08F073EF09F00604D8A43BEF61
:1010700008F03DEF08F073EF09F00450D96EDA6A1A
:10108000030EDF6E0450D96EDA6A010ED926DF50E6
:10109000D8B44DEF08F04FEF08F057EF08F00450C8
:1010A000D96EDA6A010ED926DF0673EF09F073EF05
:1010B00009F00504D8A45FEF08F061EF08F083EFB2
:1010C00008F00604D8A467EF08F069EF08F083EF92
:1010D00008F00450D96EDA6A020EDF6E0450D96E41
:1010E000DA6A010ED926DE28D8B479EF08F07BEF52
:1010F00008F073EF09F00450D96EDA6A010ED926B0
:10110000DF2A73EF09F00550D8A489EF08F08BEFC0
:1011100008F073EF09F00650D8A491EF08F093EFB0
:1011200008F073EF09F00450D96EDA6ADF6A0450F0
:10113000D96EDA6A010ED926DF50D8B4A2EF08F0D2
:10114000A4EF08F073EF09F00450D96EDA6A010ECB
:10115000D926DF0673EF09F00550D8A4B2EF08F0E6
:10116000B4EF08F0D6EF08F00604D8A4BAEF08F000
:10117000BCEF08F0D6EF08F00450D96EDA6A030E1F
:10118000DF6E0450D96EDA6A010ED926DE28D8B493
:10119000CCEF08F0CEEF08F073EF09F00450D96EF1
:1011A000DA6A010ED926DF2A73EF09F00504D8A404
:1011B000DCEF08F0DEEF08F073EF09F00650D8A47A
:1011C000E4EF08F0E6EF08F073EF09F00450D96E91
:1011D000DA6A010EDF6E0450D96EDA6A010ED92682
:1011E000DF50D8B4F6EF08F0F8EF08F073EF09F02D
:1011F0000450D96EDA6A010ED926DF0673EF09F0C2
:101200000550D8A406EF09F008EF09F029EF09F01E
:101210000650D8A40EEF09F010EF09F029EF09F0FD
:101220000450D96EDA6ADF6A0450D96EDA6A010EA8
:10123000D926DE28D8B41FEF09F021EF09F073EFAB
:1012400009F00450D96EDA6A010ED926DF2A73EF4D
:1012500009F00504D8A42FEF09F031EF09F073EF7E
:1012600009F00604D8A437EF09F039EF09F073EF5D
:1012700009F00450D96EDA6A020EDF6E0450D96E9E
:10128000DA6A010ED926DF50D8B449EF09F04BEFE6
:1012900009F073EF09F00450D96EDA6A010ED9260D
:1012A000DF0673EF09F00450D96EDA6ADF50076E7B
:1012B000086A0850000AD8B460EF09F073EF09F02B
:1012C0000750000AD8B403EF08F0010AD8B459EF68
:1012D00008F0030AD8B4ACEF08F0010AD8B400EF64
:1012E00009F073EF09F01200000E2E6E000E2F6E43
:1012F000000E2C6E000E2D6E000E2A6E000E2B6E50
:10130000000E286E000E296E000E266E000E276E4F
:10131000000E246E000E256E000E226E000E236E4F
:10132000000E1F6E000E1E6E4AEC0CF01D04D8A4B9
:101330009CEF09F09EEF09F0DCEF09F02E0E046E31
:10134000000E88BE010E056E2BEC0BF02C0E046E09
:10135000000E88BC010E056E2BEC0BF0260E046E01
:101360002FC005F0A6EC0BF0240E046E2DC005F086
:10137000A6EC0BF02A0E046E000E88B0010E056E6E
:101380002BEC0BF0280E046E000E88B2010E056ED9
:101390002BEC0BF0220E046E2BC005F029C006F0DA
:1013A00001EC08F0200E126E1E0E136E300E146E3D
:1013B0001AEC0AF0000E1D6E27B002D08C9E01D0F0
:1013C0008C8E25B002D08C9801D08C882BB002D0A6
:1013D0008C9A01D08C8A29B002D08C9801D08C884C
:1013E0002328D8A4F6EF09F0F8EF09F0FBEF09F095
:1013F000858208EF0AF02350D8A401EF0AF003EF2A
:101400000AF006EF0AF0858408EF0AF085928594C9
:101410002704D8A40EEF0AF010EF0AF014EF0AF038
:1014200030C087FF96EF09F023C087FF96EF09F0E1
:101430004DEF00F01350D96EDA6ADE04D8A423EF22
:101440000AF025EF0AF0A4EF0AF01250166E176AA0
:10145000186A196A19BE39EF0AF0195018100BE111
:10146000E80E165C030E1758D8A039EF0AF03BEFD0
:101470000AF043EF0AF0E80E166E030E176E000E28
:10148000186E000E196E19BE53EF0AF0195018109D
:10149000171007E1330E165CD8B051EF0AF053EF86
:1014A0000AF05BEF0AF0320E166E000E176E000E99
:1014B000186E000E196ECE0E1624166EFF0E172033
:1014C000176EFF0E1820186EFF0E1920196E16C029
:1014D00004F017C005F018C006F019C007F0FF0EA1
:1014E000086E000E096E000E0A6E000E0B6E15ECF3
:1014F0000CF004C016F005C017F006C018F007C0C5
:1015000019F016C004F017C005F018C006F019C095
:1015100007F0B60E086E030E096E000E0A6E000E7E
:101520000B6EA5EC0AF004C016F005C017F006C05B
:1015300018F007C019F01450D96EDA6A16C0DFFF30
:101540001350D96EDA6ADF6A1200000E0D6E0BBE00
:10155000AEEF0AF0ACEF0AF0B8EF0AF00B1E0A1E6D
:10156000091E086C000E09220A220B22010E0D6EC4
:1015700007BEBFEF0AF0BDEF0AF0C9EF0AF0071E81
:10158000061E051E046C000E052206220722010E0F
:101590000D1A000E0E6E000E0F6E000E106E000E75
:1015A000116E085009100A100B10D8B4DAEF0AF0C7
:1015B000DCEF0AF012EF0BF0010E0C6EE6EF0AF012
:1015C000D890083609360A360B360C2A0BAEEBEFEC
:1015D0000AF0EDEF0AF0E0EF0AF0D8900E360F3681
:1015E000103611360850045C095005580A50065848
:1015F0000B500758D8A0FFEF0AF001EF0BF00AEFED
:101600000BF00850045E0950055A0A50065A0B5058
:10161000075A0E80D8900B320A32093208320C2E4B
:10162000EDEF0AF00D50D8B418EF0BF01AEF0BF0F5
:1016300022EF0BF0111E101E0F1E0E6C000E0F225B
:10164000102211220EC004F00FC005F010C006F0E9
:1016500011C007F01200000E086E7CEF0BF00504BD
:10166000D8A435EF0BF037EF0BF03BEF0BF0010E8A
:10167000086EA0EF0BF0030E086EA0EF0BF0050450
:10168000D8A445EF0BF047EF0BF03BEF0BF0020E49
:10169000086EA0EF0BF00504D8A451EF0BF053EF48
:1016A0000BF03BEF0BF0020E086E0450D96EDA6AB5
:1016B000010ED926010EDF6EA0EF0BF00550D8A465
:1016C00064EF0BF066EF0BF037EF0BF0040E086ED3
:1016D000A0EF0BF00550D8A470EF0BF072EF0BF0F9
:1016E00037EF0BF0040E086E0450D96EDA6A010E63
:1016F000D926DF6AA0EF0BF00450D96EDA6ADF500A
:10170000066E076A0750000AD8B489EF0BF0A0EF05
:101710000BF00650000AD8B42FEF0BF0010AD8B432
:101720003FEF0BF0030AD8B44BEF0BF0010AD8B42B
:101730005EEF0BF0070AD8B46AEF0BF0A0EF0BF0E6
:101740000450D96EDA6A08C0DFFF1200000E086E7E
:10175000EFEF0BF00550D8A4B0EF0BF0B2EF0BF0A9
:10176000B6EF0BF0010E086E0FEF0CF0000E086ED6
:101770000FEF0CF00550D8A4C0EF0BF0C2EF0BF048
:10178000CCEF0BF0010E086E0450D96EDA6A010E30
:10179000D926DF6A0FEF0CF0020E086E0FEF0CF087
:1017A0000550D8A4D6EF0BF0D8EF0BF0CCEF0BF030
:1017B000030E086E0FEF0CF00550D8A4E2EF0BF00B
:1017C000E4EF0BF0B6EF0BF0030E086E0450D96E89
:1017D000DA6A010ED926010EDF6E0FEF0CF004500D
:1017E000D96EDA6ADF50066E076A0750000AD8B46D
:1017F000FCEF0BF00FEF0CF00650000AD8B4AAEF84
:101800000BF0010AD8B4BAEF0BF0030AD8B4D0EF4A
:101810000BF0010AD8B4DCEF0BF00FEF0CF0045022
:10182000D96EDA6A08C0DFFF1200000E0C6E000EDF
:101830000D6E000E0E6E000E0F6E04A022EF0CF067
:1018400024EF0CF02CEF0CF008500C2609500D2260
:101850000A500E220B500F22D890083609360A364D
:101860000B36D89007320632053204320450051088
:1018700006100710D8A43FEF0CF041EF0CF01DEF5D
:101880000CF00CC004F00DC005F00EC006F00FC047
:1018900007F01200880ED56ED586D58EB10ED76EA4
:1018A000DF0ED66EF194F28AF28EF28C9A68000EF8
:1018B000956E000E996E000E976E9786C088C29046
:1018C000C098AA0EC16E210EC26E9D8C9F9CFC0E0C
:1018D000D3169B8CD08E120000EE1AF0170EEE6A13
:1018E000E806FDE131903192000174EF09F0319288
:0218F0001100E5
:020000040001F9
:06FFF800A0F405FFF8FF74
:00000001FF
